:100000000C9434000C945D000C945D000C945D0025
:100010000C945D000C945D000C945D000C945D00EC
:100020000C945D000C945D000C945D000C945D00DC
:100030000C945D000C945D000C9459000C945B00D2
:100040000C945D000C945D000C945D000C945D00BC
:100050000C945D000C945D000C945D000C945D00AC
:100060000C945D000C945D0011241FBECFEFD8E00E
:10007000DEBFCDBF0E9440000C944E00F894FFCF2D
:1000800081E084B982E084BD85BD89EF87BD83E6C8
:0C00900088BD86E080936E007894FFCF5E
:10009C00EC010E9462000E946100CE010E9463008C
:0600AC00CE010E945F007E
:0800B200289A1895289818956A
:0400BA000C940000A2
:0400BE000E943E005E
:0200C20008959F
:0200C40008959D
:0200C60008959B
:00000001FF
