:100000000C9434000C9463000C9463000C94630013
:100010000C9463000C9463000C9463000C946300D4
:100020000C9463000C9463000C9463000C946300C4
:100030000C9463000C9463000C9463000C946300B4
:100040000C9440000C9463000C9463000C946300C7
:100050000C9463000C9463000C9463000C94630094
:100060000C9463000C94630011241FBECFEFD8E002
:10007000DEBFCDBF0E944D000C945800F894FFCF16
:100080008F938FB78F939F9395B181E0892785B91F
:0A0090009F918F918FBF8F911895FB
:10009A0081E084B992E094BD95BD97E297BD8093C3
:0600AA006E007894FFCF08
:1000B000EC010E9468000E946700CE010E94690066
:0600C000CE010E94650064
:0400C6000C94000096
:0400CA000E943E0052
:0200CE00089593
:0200D000089591
:0200D20008958F
:00000001FF
