:100000000C9434000C949B000C949B000C949B006B
:100010000C949B000C949B000C949B000C949B00F4
:100020000C949B000C949B000C949B000C949B00E4
:100030000C949B000C949B000C949B000C949B00D4
:100040000C949B000C949B000C949B000C949B00C4
:100050000C949B000C949B000C949B000C949B00B4
:100060000C949B000C949B0011241FBECFEFD8E092
:10007000DEBFCDBF0E9440000C949000F894FFCFEB
:100080008CE08093B8001092B90084E08093BC00AB
:100090002AEA94E88091BC00846A8093BC00809135
:1000A000BC0087FFFCCF2093BB009093BC008091E5
:1000B000BC0087FFFCCF8091B9008091BC008469AF
:1000C0008093BC003FEF43ED80E3315040408040DF
:0800D000E1F700C00000DECFE3
:1000D8008CE08093B8001092B90084E08093BC0053
:1000E80008959091BC00946A9093BC009091BC00D4
:1000F80097FFFCCF880F8093BB0084E88093BC00F7
:100108008091BC0087FFFCCF8091B9008091BC0032
:0801180084698093BC00089586
:10012000EC010E94A0000E949F00CE010E94A1004D
:06013000CE010E949D00BB
:040136000C94000025
:04013A000E943E00E1
:02013E00089522
:02014000089520
:0201420008951E
:00000001FF
