:100000000C9437000C948A000C948A000C948A009B
:100010000C948A000C948A000C948A000C948A0038
:100020000C948A000C948A000C948A000C948A0028
:100030000C948A000C948A000C948A000C948A0018
:100040000C948A000C948A000C948A000C948A0008
:100050000C948A000C948A000C948A000C948A00F8
:100060000C948A000C948A00010001018000112484
:100070001FBECFEFD8E0DEBFCDBFE8E6F0E040E046
:1000800017C0B591A59135912591059107FD0CC03B
:1000900095918591EF01F92FE82F05900D92A21708
:1000A000B307D9F7FE0104C01D92A217B307E1F709
:1000B000ED36F40731F70E9461000C947F00F8944C
:0200C000FFCF70
:1000C20080E68AB983EA84BD8AE085BD83E687BD7E
:1000D2000CC08093000188BD2FEF80E792E0215091
:1000E20080409040E1F700C00000809100018F5FE6
:0C00F200843678F31092000180E0EDCF1E
:1000FE00EC010E948F000E948E00CE010E949000A3
:06010E00CE010E948C00EE
:040114000C94000047
:040118000E945F00E2
:02011C00089544
:02011E00089542
:02012000089540
:00000001FF
