:100000000C9438000C94C7000C94C7000C94C700E3
:100010000C94C7000C94C7000C94C7000C94C70044
:100020000C94C7000C94C7000C94C7000C94C70034
:100030000C94C7000C94C7000C94C7000C94C70024
:100040000C94C7000C94C7000C94C7000C94C70014
:100050000C94C7000C94C7000C94C7000C94C70004
:100060000C94C7000C94C7000100010300019C0020
:1000700011241FBECFEFD8E0DEBFCDBFE8E6F0E031
:1000800040E017C0B591A59135912591059107FDE7
:100090000CC095918591EF01F92FE82F05900D92F5
:1000A000A217B307D9F7FE0104C01D92A217B30728
:1000B000E1F7EF36F40731F70E9492000C94BC0090
:0400C000F894FFCFE2
:1000C40087E690E09093C5008093C4001092C0002E
:1000D40088E08093C10086E38093C2000895FC0108
:1000E40016161706BCF420E030E040E09091C00002
:1000F40095FFFCCF9081490F9093C6002F5F3F4F2F
:100104006217730799F78091C00085FFFCCF409375
:10011400C600089540E08091C00085FFF4CFF7CF7A
:1001240087E690E09093C5008093C4001092C000CD
:1001340088E08093C10086E38093C20023E030E02E
:1001440090E08091C00085FFFCCF80910001980F62
:100154008093C60021503109A1F78091C00085FF2A
:10016400FCCF9093C6008FE39CE90197F1F700C0A0
:040174000000E4CFD4
:10017800EC010E94CC000E94CB00CE010E94CD0071
:06018800CE010E94C90037
:04018E000C940000CD
:040192000E94600067
:020196000895CA
:020198000895C8
:02019A000895C6
:03019C00C8643202
:00000001FF
