:100000000C9434000C946C000C946C000C946C00F8
:100010000C946C000C946C000C946C000C946C00B0
:100020000C946C000C946C000C946C000C946C00A0
:100030000C946C000C946C000C946C000C946C0090
:100040000C946C000C946C000C946C000C946C0080
:100050000C946C000C946C000C946C000C946C0070
:100060000C946C000C946C0011241FBECFEFD8E0F0
:10007000DEBFCDBF0E9463000C945800F894FFCF00
:1000800081E084B90895289A2FEF85EA9EE02150F7
:1000900080409040E1F700C0000028982FEF8DE2EB
:1000A00092E2215080409040E1F700C000000895A6
:1000B000EC010E9473000E947200CE010E94740045
:0600C000CE010E94700059
:1000C6000E9440000E946E000E9443000E946F0042
:0200D600FBCF5E
:0400D8000C94000084
:0400DC0008950895E6
:0400E0000E943E003C
:0200E40008957D
:0200E60008957B
:0200E800089579
:00000001FF
