:100000000C9438000C94B7000C94B7000C94B70013
:100010000C94B7000C94B7000C94B7000C94B70084
:100020000C94B7000C94B7000C94B7000C94B70074
:100030000C94B7000C94B7000C94B7000C94B70064
:100040000C94B7000C94B7000C94B7000C94B70054
:100050000C94B7000C94B7000C94B7000C94B70044
:100060000C9462000C94B7000100010100017C00B7
:1000700011241FBECFEFD8E0DEBFCDBFE8E6F0E031
:1000800040E017C0B591A59135912591059107FDE7
:100090000CC095918591EF01F92FE82F05900D92F5
:1000A000A217B307D9F7FE0104C01D92A217B30728
:1000B000E1F7EF36F40731F70E9496000C94AC009C
:0400C000F894FFCFE2
:1000C4008F938FB78F938091B900887F8036A1F08A
:1000D400883A39F084E88093BC008F918FBF8F9168
:1000E4001895809100018093BB0084E88093BC0044
:1000F4008F918FBF8F9118958091BB0080930001E1
:1001040084EC8093BC008F918FBF8F9118958CE005
:100114008093B8001092B90085E08093BC008AEA0D
:080124008093BA00789408955D
:10012C008CE08093B8001092B90085E08093BC00FD
:10013C008AEA8093BA0078942FEF83ED90E32150F4
:0C014C0080409040E1F700C00000F6CFBA
:10015800EC010E94BC000E94BB00CE010E94BD00C1
:06016800CE010E94B90067
:04016E000C940000ED
:040172000E94600087
:020176000895EA
:020178000895E8
:02017A000895E6
:01017C00057D
:00000001FF
