:100000000C9434000C9480000C9480000C948000BC
:100010000C9480000C9480000C9480000C94800060
:100020000C9480000C9480000C9480000C94800050
:100030000C9480000C9480000C9480000C94800040
:100040000C9480000C9480000C9480000C94800030
:100050000C9480000C9480000C9480000C94800020
:100060000C9480000C94800011241FBECFEFD8E0C8
:10007000DEBFCDBF0E9482000C947500F894FFCFC4
:100080003A9A53984B9903C042984B9BFDCF429AA2
:100090002FEF85EA9EE0215080409040E1F700C0BC
:1000A000000042982FEF8DE292E221508040904074
:1000B000E1F700C00000E6CF87B18F6387B953989E
:1000C00081E00DC088B985FD0EC0880F2FEF39E69D
:1000D00098E1215030409040E1F700C000004B997A
:0A00E000F1CF18B8F3CF81E0F1CFA3
:1000EA00EC010E9487000E948600CE010E948800CF
:0600FA00CE010E9484000B
:040100000C9400005B
:040104000E945C00F9
:040108000E943E0013
:02010C00089554
:02010E00089552
:02011000089550
:00000001FF
