:100000000C9437000C94E3000C94E3000C94E30090
:100010000C94E3000C94E3000C94E3000C94E300D4
:100020000C94E3000C94E3000C94E3000C94E300C4
:100030000C94E3000C94E3000C94E3000C94E300B4
:100040000C94E3000C94E3000C94E3000C94E300A4
:100050000C94E3000C94E3000C94E3000C94E30094
:100060000C94E3000C94E3000100010380001124D0
:100070001FBECFEFD8E0DEBFCDBFE8E6F0E040E046
:1000800017C0B591A59135912591059107FD0CC03B
:1000900095918591EF01F92FE82F05900D92A21708
:1000A000B307D9F7FE0104C01D92A217B307E1F709
:1000B000ED36F40731F70E94A5000C94D800F894AF
:0200C000FFCF70
:1000C20087E690E09093C5008093C4001092C00030
:1000D20080E18093C10086E38093C2000895FC0111
:1000E2001616170664F4680F791F9091C00097FFE7
:1000F200FCCF8091C60081936E177F07B1F70895F8
:10010200FC0190818181890F9281981711F02A9ABE
:1001120008952A988081803219F0813261F0089521
:100122008181813069F028988FE39CE90197F1F78A
:1001320000C0000008958181813021F02998F4CF18
:08014200289AF2CF299AF0CFB0
:10014A0087E084B987E690E09093C5008093C40065
:10015A001092C00080E18093C10086E38093C200C0
:10016A008091C00087FFFCCF8091C6008093000178
:10017A008091C00087FFFCCF8091C6008093010167
:10018A008091C00087FFFCCF8091C6008093020156
:10019A0080E091E00E9481008FE99FE00197F1F7EA
:0601AA0000C00000DDCFE3
:1001B000EC010E94E8000E94E700CE010E94E900E5
:0601C000CE010E94E500E3
:0401C6000C94000095
:0401CA000E945F0030
:0201CE00089592
:0201D000089590
:0201D20008958E
:00000001FF
