:100000000C9434000C947F000C947F000C947F00BF
:100010000C947F000C947F000C947F000C947F0064
:100020000C947F000C947F000C947F000C947F0054
:100030000C947F000C947F000C947F000C947F0044
:100040000C947F000C947F000C947F000C947F0034
:100050000C947F000C947F000C947F000C947F0024
:100060000C947F000C947F0011241FBECFEFD8E0CA
:10007000DEBFCDBF0E9440000C947400F894FFCF07
:1000800087E084B987E690E09093C5008093C40030
:100090001092C00080E18093C10086E38093C2008B
:1000A0008091C0008091C600843659F0883C59F098
:1000B0008233B1F72A9A8091C0008091C6008436BD
:0A00C000A9F7299AEDCF289AEBCF9B
:1000CA0087E690E09093C5008093C4001092C00028
:0E00DA0080E18093C10086E38093C200089508
:1000E800EC010E9484000E948300CE010E948500DA
:0600F800CE010E94810010
:0400FE000C9400005E
:040102000E943E0019
:0201060008955A
:02010800089558
:02010A00089556
:00000001FF
