:100000000C9434000C9455000C9455000C9455003D
:100010000C9455000C9455000C9455000C9455000C
:100020000C9455000C9455000C9455000C945500FC
:100030000C9455000C9455000C9455000C945500EC
:100040000C9455000C9455000C9455000C945500DC
:100050000C9455000C9455000C9455000C945500CC
:100060000C9455000C94550011241FBECFEFD8E01E
:10007000DEBFCDBF0E9450000C944000F894FFCF2B
:10008000EC010E945A000E945900CE010E945B00C0
:06009000CE010E945700A2
:0A00960081E084B90895289A0895C6
:0A00A0000E944B000E944E00FFCFAB
:0400AA000C940000B2
:0400AE000E943E006E
:0200B2000895AF
:0200B4000895AD
:0200B6000895AB
:00000001FF
