:100000000C9434000C9451000C9451000C94510049
:100010000C9451000C9451000C9451000C9451001C
:100020000C9451000C9451000C9451000C9451000C
:100030000C9451000C9495000C9451000C945100B8
:100040000C9451000C9451000C9451000C94C0007D
:100050000C9451000C9485000C9451000C945100A8
:100060000C9451000C94510011241FBECFEFD8E026
:10007000DEBFCDBF11E0A0E0B1E0E8E9F3E002C0EF
:1000800005900D92AE32B107D9F721E0AEE2B1E0B2
:1000900001C01D92A337B207E1F70E9461010C94E1
:1000A000CA010C94000080EC80937C008FEA80935E
:1000B0007A0086E080937B0081E080937E00089543
:1000C00087E084B908951092800082E080938100D7
:1000D00084E294EF909389008093880090938B0042
:1000E00080938A0081E080936F0008959C01ACE4C6
:1000F000B4E00E94A701A92F982F872FA695979566
:100100008795A6959795879508958F939F9380914E
:1001100078009091790080932F019093300181E0D5
:1001200080932E019F918F9118958F938FB78F9306
:100130009F9385B191E0892785B99F918F918FBF5A
:100140008F911895909132019F5F9F73209131019B
:100150002917E1F3E0913201F0E0ED5CFE4F80837E
:10016000F89420913201809131019093320128134B
:1001700005C08091C10080628093C1007894089589
:100180008F938FB78F939F93EF93FF93E0913101FC
:10019000F0E0ED5CFE4F80818093C60080913101DC
:1001A0008F5F8F7380933101909132018091310183
:1001B000981305C08091C1008F7D8093C100FF918D
:1001C000EF919F918F918FBF8F91189587E690E067
:1001D0009093C5008093C4001092C00088E0809383
:1001E000C10086E08093C2000895CF93DF93EC01B5
:1001F0008881811103C0DF91CF91089521960E94DB
:10020000A200F6CF0C94A2001F93CF93DF9300D0EF
:1002100000D000D0CDB7DEB79C0110E0EAE0F0E0FE
:10022000892B61F480E30F900F900F900F900F9047
:100230000F90DF91CF911F910C94A200C901BF01D3
:100240000E94B601DE011196A10FB11D1F5F805DF6
:100250008C93C9019B010A9788F711110AC00F906E
:100260000F900F900F900F900F90DF91CF911F91F3
:1002700008951150FE013196E10FF11D80810E9419
:10028000A200EBCFCF93C82FE82FE295EF70F0E0FC
:10029000E050FF4F80810E94A200CF70EC2FF0E071
:1002A000E050FF4F8081CF910C94A200F8942091F0
:1002B000320190913101789481E0291301C080E0EE
:1002C00008950E94630087E084B90E9453000E9451
:1002D000E6007894299A81E191E00E94F50088E097
:1002E00090912E019115E1F310922E018150C1F7EA
:1002F000C0912F01D09130018EE191E00E94F50074
:10030000CE010E94040183E291E00E94F5009E016B
:10031000ACE4B4E00E94A701A92F982F872FA695DF
:1003200097958795A695979587956AE070E00E94C6
:10033000B601EC01CB010E94040187E291E00E942A
:10034000F500CE010E94040189E291E0C6CFA29F90
:10035000B001B39FC001A39F700D811D1124911D99
:10036000B29F700D811D1124911D0895AA1BBB1B06
:1003700051E107C0AA1FBB1FA617B70710F0A61BA5
:10038000B70B881F991F5A95A9F780959095BC01C6
:08039000CD010895F894FFCFA0
:1003980030313233343536373839414243444546B3
:1003A800004C616D70616461204F4E0D0A0041443C
:0E03B800433D0020543D002E0020430D0A005E
:00000001FF
