:100000000C9434000C945B000C945B000C945B002B
:100010000C945B000C945B000C945B000C945B00F4
:100020000C945B000C945B000C945B000C945B00E4
:100030000C945B000C945B000C945B000C945B00D4
:100040000C945B000C945B000C945B000C945B00C4
:100050000C945B000C945B000C945B000C945B00B4
:100060000C945B000C945B0011241FBECFEFD8E012
:10007000DEBFCDBF0E944B000C944000F894FFCF30
:10008000EC010E9462000E946100CE010E946300A8
:06009000CE010E945D009C
:100096000E9458000E945F000E9454000E94600067
:0200A600FBCF8E
:0800A80085B1805885B9089567
:0600B00080E884B9089508
:0400B6000C940000A6
:0400BA000E943E0062
:0200BE000895A3
:0200C0000895A1
:0200C20008959F
:0200C40008959D
:0200C60008959B
:00000001FF
