:100000000C9434000C947F000C947F000C947F00BF
:100010000C947F000C947F000C947F000C947F0064
:100020000C947F000C947F000C947F000C947F0054
:100030000C947F000C947F000C947F000C947F0044
:100040000C947F000C947F000C947F000C947F0034
:100050000C947F000C947F000C947F000C947F0024
:100060000C947F000C947F0011241FBECFEFD8E0CA
:10007000DEBFCDBF0E945D000C947400F894FFCFEA
:1000800087E690E09093C5008093C4001092C00072
:1000900088E08093C10086E28093C200089588E0E2
:1000A00090E09093C5008093C4001092C0008093AC
:0A00B000C1008EE08093C2000895A5
:1000BA0088E090E09093C5008093C4001092C0003D
:1000CA008093C1008EE08093C2008BE58093C600C6
:0E00DA00EFE3FCE93197F1F700C00000F7CF2B
:1000E800EC010E9484000E948300CE010E948500DA
:0600F800CE010E94810010
:0400FE000C9400005E
:040102000E943E0019
:0201060008955A
:02010800089558
:02010A00089556
:00000001FF
