:100000000C9434000C9463000C9463000C94630013
:100010000C9463000C9463000C9463000C946300D4
:100020000C9463000C9463000C9463000C946300C4
:100030000C9463000C9463000C9463000C946300B4
:100040000C9463000C9463000C9463000C946300A4
:100050000C9463000C9463000C9463000C94630094
:100060000C9463000C94630011241FBECFEFD8E002
:10007000DEBFCDBF0E9440000C945800F894FFCF23
:1000800087E690E09093C5008093C4001092C00072
:1000900088E08093C10086E28093C2008BE5809364
:1000A000C600EFE3FCE93197F1F700C00000F7CF9D
:1000B000EC010E9468000E946700CE010E94690066
:0600C000CE010E94650064
:0400C6000C94000096
:0400CA000E943E0052
:0200CE00089593
:0200D000089591
:0200D20008958F
:00000001FF
