:100000000C9434000C94AD000C94AD000C94AD0035
:100010000C94AD000C94AD000C94AD000C94AD00AC
:100020000C94AD000C94AD000C94AD000C94AD009C
:100030000C94AD000C94AD000C94AD000C94AD008C
:100040000C94AD000C94AD000C94AD000C94AD007C
:100050000C94AD000C94AD000C94AD000C94AD006C
:100060000C94AD000C94AD0011241FBECFEFD8E06E
:10007000DEBFCDBF0E9440000C94A200F894FFCFD9
:1000800087E690E09093C5008093C4001092C00072
:1000900088E08093C10086E38093C20080E284B947
:1000A00094E785E633E72AE09093C600EFE3FCE9A6
:1000B0003197F1F700C000008093C600EFE3FCE940
:1000C0003197F1F700C000003093C600EFE3FCE980
:1000D0003197F1F700C000009093C600EFE3FCE910
:1000E0003197F1F700C000008093C600EFE3FCE910
:1000F0003197F1F700C000002093C6002D9AFFEF62
:1001000043EC59E0F15040405040E1F700C000009E
:100110002D986FEFE5EAFEE06150E040F040E1F736
:0601200000C00000C1CF89
:1001260087E690E09093C5008093C4001092C000CB
:0E01360088E08093C10086E38093C2000895A4
:10014400EC010E94B2000E94B100CE010E94B300F3
:06015400CE010E94AF0085
:04015A000C94000001
:04015E000E943E00BD
:020162000895FE
:020164000895FC
:020166000895FA
:00000001FF
