:100000000C943A000C94A2000C94A2000C94A20050
:100010000C94A2000C94A2000C94A2000C94A200D8
:100020000C94A2000C94A2000C94A2000C94A200C8
:100030000C94A2000C94A2000C94A2000C94A200B8
:100040000C94A2000C94A2000C94A2000C94A200A8
:100050000C94A2000C94A2000C94A2000C94A20098
:100060000C94A2000C94A200010001048001040180
:100070000800015211241FBECFEFD8E0DEBFCDBF74
:10008000E8E6F0E040E017C0B591A59135912591E3
:10009000059107FD0CC095918591EF01F92FE82F8F
:1000A00005900D92A217B307D9F7FE0104C01D9267
:1000B000A217B307E1F7E437F40731F70E94830092
:0800C0000C949700F894FFCFA7
:1000C80084B1886284B981E58CBD1DBC08958EBD5C
:1000D8000DB407FEFDCF8EB50895FB0141155105FE
:1000E80069F0DC01460F571F8D918EBD0DB407FED8
:0E00F800FDCF8EB58193E417F507B1F708959B
:100106000E94640044E050E060E071E084E091E029
:100116000E9471002FEF81EE94E0215080409040C4
:08012600E1F700C00000EECF7C
:10012E00EC010E94A7000E94A600CE010E94A8002A
:06013E00CE010E94A400A6
:040144000C94000017
:040148000E946200AF
:02014C00089514
:02014E00089512
:02015000089510
:040152000A3B33240D
:00000001FF
