:100000000C943A000C9405010C94B5000C94050175
:100010000C9405010C9405010C9405010C94050148
:100020000C9405010C9405010C9405010C94050138
:100030000C9405010C9405010C9405010C94050128
:100040000C9405010C9405010C9405010C94050118
:100050000C9405010C9405010C9405010C94050108
:100060000C9405010C940501010001010002180126
:100070000101028011241FBECFEFD8E0DEBFCDBF4B
:10008000E8E6F0E040E017C0B591A59135912591E3
:10009000059107FD0CC095918591EF01F92FE82F8F
:1000A00005900D92A217B307D9F7FE0104C01D9267
:1000B000A217B307E1F7E437F40731F70E946400B1
:0800C0000C94FA00F894FFCF44
:1000C80080E68AB983EA84BD8AE085BD8FEF87BD63
:1000D8001092800084E08093810089EF90E09093F3
:1000E80089008093880083E690E090938B0080934A
:1000F8008A008CE08093690082E08DBB78944A99ED
:1001080026C0809100018E5F809300014A9BFECF3C
:100118002FE788E391E0215080409040E1F700C04C
:1001280000008091000188BD80910101882339F386
:10013800109201015F9A2FE788E391E021508040F7
:100148009040E1F700C000005F984A9BDACF4999D8
:10015800DFCF80910001825080930001499BFECF40
:02016800D7CFEF
:10016A001F921FB61F9211242F938F939F93AF93C1
:10017A00BF932FEF80E792E0215080409040E1F753
:10018A0000C0000080918400909185001092850043
:10019A001092840021E020930101A0E0B0E0803BAE
:1001AA009842A105B10584F480910001882319F0D1
:1001BA00815080930001BF91AF919F918F912F91B0
:1001CA001F901FBE1F901895809100018E3F98F7CF
:1001DA008F5F80930001EFCF8CE08093690082E00B
:0A01EA008DBB089580E68AB90895E0
:1001F400EC010E940A010E940901CE010E940B0138
:06020400CE010E9407017B
:04020A000C94000050
:04020E000E946200E8
:0202120008954D
:0202140008954B
:02021600089549
:01021800C81D
:00000001FF
