:100000000C9434000C9469000C9469000C94690001
:100010000C9469000C9469000C9469000C946900BC
:100020000C9469000C9469000C9469000C946900AC
:100030000C9469000C9451000C9469000C946900B4
:100040000C9469000C9469000C9469000C9469008C
:100050000C9469000C9469000C9469000C9469007C
:100060000C9469000C94690011241FBECFEFD8E0F6
:10007000DEBFCDBF0E9440000C945E00F894FFCF1D
:1000800081E084B9109280009BE0909381002FEF73
:100090003FEF309389002093880080936F0078941D
:0200A000FFCF90
:1000A2008F938FB78F939F9395B181E0892785B9FD
:0A00B2009F918F918FBF8F911895D9
:1000BC00EC010E946E000E946D00CE010E946F0048
:0600CC00CE010E946B0052
:0400D2000C9400008A
:0400D6000E943E0046
:0200DA00089587
:0200DC00089585
:0200DE00089583
:00000001FF
